{
  "address": "0xFc103FAB326cf2940B2405D4872f52bc1aF287fc",
  "abi": [
    {
      "inputs": [
        {
          "internalType": "address",
          "name": "vrfCoordinatorV2",
          "type": "address"
        },
        {
          "internalType": "bytes32",
          "name": "gasLane",
          "type": "bytes32"
        },
        {
          "internalType": "uint256",
          "name": "subscriptionId",
          "type": "uint256"
        },
        {
          "internalType": "uint32",
          "name": "callbackGasLimit",
          "type": "uint32"
        },
        {
          "internalType": "uint256",
          "name": "_minBetAmount",
          "type": "uint256"
        },
        {
          "internalType": "uint256",
          "name": "_maxPayoutPercentage",
          "type": "uint256"
        }
      ],
      "stateMutability": "nonpayable",
      "type": "constructor"
    },
    {
      "inputs": [
        {
          "internalType": "address",
          "name": "have",
          "type": "address"
        },
        {
          "internalType": "address",
          "name": "want",
          "type": "address"
        }
      ],
      "name": "OnlyCoordinatorCanFulfill",
      "type": "error"
    },
    {
      "inputs": [
        {
          "internalType": "address",
          "name": "owner",
          "type": "address"
        }
      ],
      "name": "OwnableInvalidOwner",
      "type": "error"
    },
    {
      "inputs": [
        {
          "internalType": "address",
          "name": "account",
          "type": "address"
        }
      ],
      "name": "OwnableUnauthorizedAccount",
      "type": "error"
    },
    {
      "anonymous": false,
      "inputs": [
        {
          "indexed": true,
          "internalType": "uint256",
          "name": "requestId",
          "type": "uint256"
        },
        {
          "indexed": true,
          "internalType": "address",
          "name": "player",
          "type": "address"
        },
        {
          "indexed": false,
          "internalType": "uint256",
          "name": "betAmount",
          "type": "uint256"
        }
      ],
      "name": "CoinFlipRequested",
      "type": "event"
    },
    {
      "anonymous": false,
      "inputs": [
        {
          "indexed": true,
          "internalType": "uint256",
          "name": "requestId",
          "type": "uint256"
        },
        {
          "indexed": true,
          "internalType": "address",
          "name": "player",
          "type": "address"
        },
        {
          "indexed": false,
          "internalType": "bool",
          "name": "won",
          "type": "bool"
        },
        {
          "indexed": false,
          "internalType": "uint256",
          "name": "payout",
          "type": "uint256"
        }
      ],
      "name": "CoinFlipResult",
      "type": "event"
    },
    {
      "anonymous": false,
      "inputs": [
        {
          "indexed": true,
          "internalType": "address",
          "name": "previousOwner",
          "type": "address"
        },
        {
          "indexed": true,
          "internalType": "address",
          "name": "newOwner",
          "type": "address"
        }
      ],
      "name": "OwnershipTransferred",
      "type": "event"
    },
    {
      "anonymous": false,
      "inputs": [
        {
          "indexed": false,
          "internalType": "uint256",
          "name": "amount",
          "type": "uint256"
        }
      ],
      "name": "TreasuryFunded",
      "type": "event"
    },
    {
      "anonymous": false,
      "inputs": [
        {
          "indexed": false,
          "internalType": "uint256",
          "name": "amount",
          "type": "uint256"
        }
      ],
      "name": "TreasuryWithdrawn",
      "type": "event"
    },
    {
      "inputs": [],
      "name": "PERCENTAGE_BASE",
      "outputs": [
        {
          "internalType": "uint256",
          "name": "",
          "type": "uint256"
        }
      ],
      "stateMutability": "view",
      "type": "function"
    },
    {
      "inputs": [],
      "name": "betAndFlipCoin",
      "outputs": [],
      "stateMutability": "payable",
      "type": "function"
    },
    {
      "inputs": [
        {
          "internalType": "uint256",
          "name": "betAmount",
          "type": "uint256"
        }
      ],
      "name": "calculatePayout",
      "outputs": [
        {
          "internalType": "uint256",
          "name": "",
          "type": "uint256"
        }
      ],
      "stateMutability": "view",
      "type": "function"
    },
    {
      "inputs": [],
      "name": "fundTreasury",
      "outputs": [],
      "stateMutability": "payable",
      "type": "function"
    },
    {
      "inputs": [],
      "name": "maxPayoutPercentage",
      "outputs": [
        {
          "internalType": "uint256",
          "name": "",
          "type": "uint256"
        }
      ],
      "stateMutability": "view",
      "type": "function"
    },
    {
      "inputs": [],
      "name": "minBetAmount",
      "outputs": [
        {
          "internalType": "uint256",
          "name": "",
          "type": "uint256"
        }
      ],
      "stateMutability": "view",
      "type": "function"
    },
    {
      "inputs": [],
      "name": "owner",
      "outputs": [
        {
          "internalType": "address",
          "name": "",
          "type": "address"
        }
      ],
      "stateMutability": "view",
      "type": "function"
    },
    {
      "inputs": [
        {
          "internalType": "uint256",
          "name": "requestId",
          "type": "uint256"
        },
        {
          "internalType": "uint256[]",
          "name": "randomWords",
          "type": "uint256[]"
        }
      ],
      "name": "rawFulfillRandomWords",
      "outputs": [],
      "stateMutability": "nonpayable",
      "type": "function"
    },
    {
      "inputs": [],
      "name": "renounceOwnership",
      "outputs": [],
      "stateMutability": "nonpayable",
      "type": "function"
    },
    {
      "inputs": [
        {
          "internalType": "uint256",
          "name": "_maxPayoutPercentage",
          "type": "uint256"
        }
      ],
      "name": "setMaxPayoutPercentage",
      "outputs": [],
      "stateMutability": "nonpayable",
      "type": "function"
    },
    {
      "inputs": [
        {
          "internalType": "uint256",
          "name": "_minBetAmount",
          "type": "uint256"
        }
      ],
      "name": "setMinBetAmount",
      "outputs": [],
      "stateMutability": "nonpayable",
      "type": "function"
    },
    {
      "inputs": [
        {
          "internalType": "address",
          "name": "newOwner",
          "type": "address"
        }
      ],
      "name": "transferOwnership",
      "outputs": [],
      "stateMutability": "nonpayable",
      "type": "function"
    },
    {
      "inputs": [],
      "name": "treasuryBalance",
      "outputs": [
        {
          "internalType": "uint256",
          "name": "",
          "type": "uint256"
        }
      ],
      "stateMutability": "view",
      "type": "function"
    },
    {
      "inputs": [
        {
          "internalType": "uint256",
          "name": "amount",
          "type": "uint256"
        }
      ],
      "name": "withdrawTreasury",
      "outputs": [],
      "stateMutability": "nonpayable",
      "type": "function"
    },
    {
      "stateMutability": "payable",
      "type": "receive"
    }
  ],
  "transactionHash": "0x13fbbd521072ad40e67ae97e99bfa2528a9e07d8bc20a5d7d1eada1c2965d1b5",
  "args": [
    "0x343300b5d84d444b2adc9116fef1bed02be49cf2",
    "0x816bedba8a50b294e5cbd47842baf240c2385f2eaf719edbd4f250a137a8c899",
    "5478683274065929883482628998599168422859348416206994309691431616408174057992",
    100000,
    "10000000000000000",
    5000
  ],
  "numDeployments": 1,
  "solcInputHash": "b0ad9aeaaed2449f004bd28b7b9584c7",
  "bytecode": "0x61012060405234801561001157600080fd5b50604051610e98380380610e98833981016040819052610030916100ec565b6001600160a01b038616608052338061006357604051631e4fbdf760e01b81526000600482015260240160405180910390fd5b61006c8161009c565b506001600160a01b0390951660a05260c09390935260e09190915263ffffffff1661010052600255600355610161565b600080546001600160a01b038381166001600160a01b0319831681178455604051919092169283917f8be0079c531659141344cd1fd0a4f28419497f9722a3daafe3b4186f6b6457e09190a35050565b60008060008060008060c0878903121561010557600080fd5b86516001600160a01b038116811461011c57600080fd5b809650506020870151945060408701519350606087015163ffffffff8116811461014557600080fd5b809350506080870151915060a087015190509295509295509295565b60805160a05160c05160e05161010051610cec6101ac600039600061067a0152600061064701526000610618015260006106ab01526000818161045701526104990152610cec6000f3fe6080604052600436106100e15760003560e01c80638da5cb5b1161007f578063b9c1868511610059578063b9c1868514610210578063bdac18f114610218578063f2fde38b14610238578063fa968eea1461025857600080fd5b80638da5cb5b146101ca578063aaae0284146101f2578063af114dd51461020857600080fd5b80633bb91c77116100bb5780633bb91c771461015f5780636c1885931461017f578063715018a61461019f57806387c13943146101b457600080fd5b806311f1fc99146100f65780631fe543e314610116578063313dab201461013657600080fd5b366100f1576100ef3461026e565b005b600080fd5b34801561010257600080fd5b506100ef610111366004610ace565b61030f565b34801561012257600080fd5b506100ef610131366004610afd565b61044c565b34801561014257600080fd5b5061014c60015481565b6040519081526020015b60405180910390f35b34801561016b57600080fd5b5061014c61017a366004610ace565b6104d4565b34801561018b57600080fd5b506100ef61019a366004610ace565b61053b565b3480156101ab57600080fd5b506100ef610548565b3480156101c057600080fd5b5061014c61271081565b3480156101d657600080fd5b506000546040516001600160a01b039091168152602001610156565b3480156101fe57600080fd5b5061014c60035481565b6100ef61055c565b6100ef61078b565b34801561022457600080fd5b506100ef610233366004610ace565b61079c565b34801561024457600080fd5b506100ef610253366004610bc7565b6107f0565b34801561026457600080fd5b5061014c60025481565b60015461027b8282610c06565b10156102c25760405162461bcd60e51b81526020600482015260116024820152705472656173757279206f766572666c6f7760781b60448201526064015b60405180910390fd5b80600160008282546102d49190610c06565b90915550506040518181527fef7aff843f3420b45d9d058ff62be0d87a95132dea4a67b18925283ba05647dc9060200160405180910390a150565b61031761082e565b6001548111156103695760405162461bcd60e51b815260206004820152601b60248201527f496e73756666696369656e742074726561737572792066756e6473000000000060448201526064016102b9565b806001600082825461037b9190610c1f565b9091555050600080546040516001600160a01b039091169083908381818185875af1925050503d80600081146103cd576040519150601f19603f3d011682016040523d82523d6000602084013e6103d2565b606091505b50509050806104155760405162461bcd60e51b815260206004820152600f60248201526e151c985b9cd9995c8819985a5b1959608a1b60448201526064016102b9565b6040518281527fdcfb70a6f0f5eab41644ac0cde62fe5f51ce0bb0a53b88ea72c4b2b78ad887bc9060200160405180910390a15050565b336001600160a01b037f000000000000000000000000000000000000000000000000000000000000000016146104c65760405163073e64fd60e21b81523360048201526001600160a01b037f00000000000000000000000000000000000000000000000000000000000000001660248201526044016102b9565b6104d0828261085b565b5050565b6000806104e2836064610c32565b6127106001546104f29190610c32565b6104fc9190610c5f565b9050600354811161050d5780610511565b6003545b90506127106105208285610c32565b61052a9190610c5f565b6105349084610c06565b9392505050565b61054361082e565b600255565b61055061082e565b61055a6000610a7e565b565b6002543410156105a35760405162461bcd60e51b815260206004820152601260248201527142657420616d6f756e7420746f6f206c6f7760701b60448201526064016102b9565b6001546105b03482610c06565b10156105f25760405162461bcd60e51b81526020600482015260116024820152705472656173757279206f766572666c6f7760781b60448201526064016102b9565b34600160008282546106049190610c06565b90915550506040516305d3b1d360e41b81527f0000000000000000000000000000000000000000000000000000000000000000600482015267ffffffffffffffff7f00000000000000000000000000000000000000000000000000000000000000001660248201526003604482015263ffffffff7f0000000000000000000000000000000000000000000000000000000000000000166064820152600160848201526000907f00000000000000000000000000000000000000000000000000000000000000006001600160a01b031690635d3b1d309060a4016020604051808303816000875af11580156106fc573d6000803e3d6000fd5b505050506040513d601f19601f820116820180604052508101906107209190610c73565b600081815260046020908152604080832080546001600160a01b03191633908117909155600583529281902034908190559051908152929350909183917fa2fda052f98934967782931dbe3da985b2cd4b3cf1de37d7361ab6afe056a74c910160405180910390a350565b61079361082e565b61055a3461026e565b6107a461082e565b6127108111156107eb5760405162461bcd60e51b8152602060048201526012602482015271496e76616c69642070657263656e7461676560701b60448201526064016102b9565b600355565b6107f861082e565b6001600160a01b03811661082257604051631e4fbdf760e01b8152600060048201526024016102b9565b61082b81610a7e565b50565b6000546001600160a01b0316331461055a5760405163118cdaa760e01b81523360048201526024016102b9565b600082815260046020908152604080832054600590925282205483516001600160a01b039092169290916002908590839061089857610898610c8c565b60200260200101516108aa9190610ca2565b1590508015610a0a5760006108be836104d4565b90508060015410156109125760405162461bcd60e51b815260206004820152601b60248201527f496e73756666696369656e742074726561737572792066756e6473000000000060448201526064016102b9565b80600160008282546109249190610c1f565b90915550506040516000906001600160a01b0386169083908381818185875af1925050503d8060008114610974576040519150601f19603f3d011682016040523d82523d6000602084013e610979565b606091505b50509050806109bc5760405162461bcd60e51b815260206004820152600f60248201526e151c985b9cd9995c8819985a5b1959608a1b60448201526064016102b9565b6040805160018152602081018490526001600160a01b0387169189917f60bb14e357a07d495cefbec9003f55c1840408bff66e4bb35047f5b9a56cf5dc910160405180910390a35050610a51565b60408051600080825260208201526001600160a01b0385169187917f60bb14e357a07d495cefbec9003f55c1840408bff66e4bb35047f5b9a56cf5dc910160405180910390a35b50505060009182525060046020908152604080832080546001600160a01b03191690556005909152812055565b600080546001600160a01b038381166001600160a01b0319831681178455604051919092169283917f8be0079c531659141344cd1fd0a4f28419497f9722a3daafe3b4186f6b6457e09190a35050565b600060208284031215610ae057600080fd5b5035919050565b634e487b7160e01b600052604160045260246000fd5b60008060408385031215610b1057600080fd5b8235915060208084013567ffffffffffffffff80821115610b3057600080fd5b818601915086601f830112610b4457600080fd5b813581811115610b5657610b56610ae7565b8060051b604051601f19603f83011681018181108582111715610b7b57610b7b610ae7565b604052918252848201925083810185019189831115610b9957600080fd5b938501935b82851015610bb757843584529385019392850192610b9e565b8096505050505050509250929050565b600060208284031215610bd957600080fd5b81356001600160a01b038116811461053457600080fd5b634e487b7160e01b600052601160045260246000fd5b80820180821115610c1957610c19610bf0565b92915050565b81810381811115610c1957610c19610bf0565b8082028115828204841417610c1957610c19610bf0565b634e487b7160e01b600052601260045260246000fd5b600082610c6e57610c6e610c49565b500490565b600060208284031215610c8557600080fd5b5051919050565b634e487b7160e01b600052603260045260246000fd5b600082610cb157610cb1610c49565b50069056fea264697066735822122023b9cfc4a0012c3267c92c8aeed6ef02b65624407558a7f3fd68e2680e9572b964736f6c63430008140033",
  "devdoc": {
    "errors": {
      "OwnableInvalidOwner(address)": [
        {
          "details": "The owner is not a valid owner account. (eg. `address(0)`)"
        }
      ],
      "OwnableUnauthorizedAccount(address)": [
        {
          "details": "The caller account is not authorized to perform an operation."
        }
      ]
    },
    "kind": "dev",
    "methods": {
      "owner()": {
        "details": "Returns the address of the current owner."
      },
      "renounceOwnership()": {
        "details": "Leaves the contract without owner. It will not be possible to call `onlyOwner` functions. Can only be called by the current owner. NOTE: Renouncing ownership will leave the contract without an owner, thereby disabling any functionality that is only available to the owner."
      },
      "transferOwnership(address)": {
        "details": "Transfers ownership of the contract to a new account (`newOwner`). Can only be called by the current owner."
      }
    },
    "version": 1
  },
  "userdoc": {
    "kind": "user",
    "methods": {},
    "version": 1
  },
  "storageLayout": {
    "storage": [
      {
        "astId": 162,
        "contract": "contracts/YourContract.sol:YourContract",
        "label": "_owner",
        "offset": 0,
        "slot": "0",
        "type": "t_address"
      },
      {
        "astId": 357,
        "contract": "contracts/YourContract.sol:YourContract",
        "label": "treasuryBalance",
        "offset": 0,
        "slot": "1",
        "type": "t_uint256"
      },
      {
        "astId": 359,
        "contract": "contracts/YourContract.sol:YourContract",
        "label": "minBetAmount",
        "offset": 0,
        "slot": "2",
        "type": "t_uint256"
      },
      {
        "astId": 361,
        "contract": "contracts/YourContract.sol:YourContract",
        "label": "maxPayoutPercentage",
        "offset": 0,
        "slot": "3",
        "type": "t_uint256"
      },
      {
        "astId": 368,
        "contract": "contracts/YourContract.sol:YourContract",
        "label": "s_requestIdToPlayer",
        "offset": 0,
        "slot": "4",
        "type": "t_mapping(t_uint256,t_address)"
      },
      {
        "astId": 372,
        "contract": "contracts/YourContract.sol:YourContract",
        "label": "s_requestIdToBetAmount",
        "offset": 0,
        "slot": "5",
        "type": "t_mapping(t_uint256,t_uint256)"
      }
    ],
    "types": {
      "t_address": {
        "encoding": "inplace",
        "label": "address",
        "numberOfBytes": "20"
      },
      "t_mapping(t_uint256,t_address)": {
        "encoding": "mapping",
        "key": "t_uint256",
        "label": "mapping(uint256 => address)",
        "numberOfBytes": "32",
        "value": "t_address"
      },
      "t_mapping(t_uint256,t_uint256)": {
        "encoding": "mapping",
        "key": "t_uint256",
        "label": "mapping(uint256 => uint256)",
        "numberOfBytes": "32",
        "value": "t_uint256"
      },
      "t_uint256": {
        "encoding": "inplace",
        "label": "uint256",
        "numberOfBytes": "32"
      }
    }
  }
}